{
  "contractName": "CrowdSale",
  "abi": [
    {
      "constant": false,
      "inputs": [],
      "name": "checkGoalReached",
      "outputs": [],
      "payable": false,
      "stateMutability": "nonpayable",
      "type": "function"
    },
    {
      "constant": true,
      "inputs": [],
      "name": "deadline",
      "outputs": [
        {
          "name": "",
          "type": "uint256"
        }
      ],
      "payable": false,
      "stateMutability": "view",
      "type": "function"
    },
    {
      "constant": true,
      "inputs": [],
      "name": "beneficiary",
      "outputs": [
        {
          "name": "",
          "type": "address"
        }
      ],
      "payable": false,
      "stateMutability": "view",
      "type": "function"
    },
    {
      "constant": true,
      "inputs": [
        {
          "name": "",
          "type": "address"
        }
      ],
      "name": "balanceOf",
      "outputs": [
        {
          "name": "",
          "type": "uint256"
        }
      ],
      "payable": false,
      "stateMutability": "view",
      "type": "function"
    },
    {
      "constant": true,
      "inputs": [],
      "name": "crowdSaleClosed",
      "outputs": [
        {
          "name": "",
          "type": "bool"
        }
      ],
      "payable": false,
      "stateMutability": "view",
      "type": "function"
    },
    {
      "constant": true,
      "inputs": [],
      "name": "fundingGoal",
      "outputs": [
        {
          "name": "",
          "type": "uint256"
        }
      ],
      "payable": false,
      "stateMutability": "view",
      "type": "function"
    },
    {
      "constant": true,
      "inputs": [],
      "name": "amountRaised",
      "outputs": [
        {
          "name": "",
          "type": "uint256"
        }
      ],
      "payable": false,
      "stateMutability": "view",
      "type": "function"
    },
    {
      "constant": true,
      "inputs": [],
      "name": "tokenPrice",
      "outputs": [
        {
          "name": "",
          "type": "uint256"
        }
      ],
      "payable": false,
      "stateMutability": "view",
      "type": "function"
    },
    {
      "constant": true,
      "inputs": [],
      "name": "fundingGoalReached",
      "outputs": [
        {
          "name": "",
          "type": "bool"
        }
      ],
      "payable": false,
      "stateMutability": "view",
      "type": "function"
    },
    {
      "constant": true,
      "inputs": [],
      "name": "rewardToken",
      "outputs": [
        {
          "name": "",
          "type": "address"
        }
      ],
      "payable": false,
      "stateMutability": "view",
      "type": "function"
    },
    {
      "constant": false,
      "inputs": [],
      "name": "safeTransfer",
      "outputs": [],
      "payable": false,
      "stateMutability": "nonpayable",
      "type": "function"
    },
    {
      "inputs": [
        {
          "name": "goalAmountInEther",
          "type": "uint256"
        },
        {
          "name": "crowdSaleDurationInMinutes",
          "type": "uint256"
        },
        {
          "name": "priceOfEachRewardToken",
          "type": "uint256"
        },
        {
          "name": "rewardTokenAddress",
          "type": "address"
        }
      ],
      "payable": false,
      "stateMutability": "nonpayable",
      "type": "constructor"
    },
    {
      "payable": true,
      "stateMutability": "payable",
      "type": "fallback"
    },
    {
      "anonymous": false,
      "inputs": [
        {
          "indexed": false,
          "name": "beneficiary",
          "type": "address"
        },
        {
          "indexed": false,
          "name": "amountRaised",
          "type": "uint256"
        }
      ],
      "name": "GoalReached",
      "type": "event"
    },
    {
      "anonymous": false,
      "inputs": [
        {
          "indexed": false,
          "name": "to",
          "type": "address"
        },
        {
          "indexed": false,
          "name": "amount",
          "type": "uint256"
        },
        {
          "indexed": false,
          "name": "isContribution",
          "type": "bool"
        }
      ],
      "name": "FundTransfer",
      "type": "event"
    }
  ],
  "bytecode": "0x6060604052341561000f57600080fd5b604051608080610a5f83398101604052808051906020019091908051906020019091908051906020019091908051906020019091905050336000806101000a81548173ffffffffffffffffffffffffffffffffffffffff021916908373ffffffffffffffffffffffffffffffffffffffff160217905550836001819055506000600281905550603c83024201600381905550670de0b6b3a7640000820260048190555080600560006101000a81548173ffffffffffffffffffffffffffffffffffffffff021916908373ffffffffffffffffffffffffffffffffffffffff1602179055506000600560146101000a81548160ff0219169083151502179055506000600560156101000a81548160ff021916908315150217905550505050506109238061013c6000396000f3006060604052600436106100af576000357c0100000000000000000000000000000000000000000000000000000000900463ffffffff16806301cb3b201461028d57806329dcb0cf146102a257806338af3eed146102cb57806370a082311461032057806377b1da931461036d5780637a3a0e841461039a5780637b3e5e7b146103c35780637ff9b596146103ec578063d424f62814610415578063f7c618c114610442578063f910feaa14610497575b6000600560149054906101000a900460ff161515156100cd57600080fd5b34905080600660003373ffffffffffffffffffffffffffffffffffffffff1673ffffffffffffffffffffffffffffffffffffffff1681526020019081526020016000206000828254019250508190555080600260008282540192505081905550600560009054906101000a900473ffffffffffffffffffffffffffffffffffffffff1673ffffffffffffffffffffffffffffffffffffffff1663a9059cbb336004548481151561017957fe5b046040518363ffffffff167c0100000000000000000000000000000000000000000000000000000000028152600401808373ffffffffffffffffffffffffffffffffffffffff1673ffffffffffffffffffffffffffffffffffffffff16815260200182815260200192505050600060405180830381600087803b15156101fe57600080fd5b6102c65a03f1151561020f57600080fd5b5050507fe842aea7a5f1b01049d752008c53c52890b1a6daf660cf39e8eec506112bbdf633826001604051808473ffffffffffffffffffffffffffffffffffffffff1673ffffffffffffffffffffffffffffffffffffffff16815260200183815260200182151515158152602001935050505060405180910390a150005b341561029857600080fd5b6102a06104ac565b005b34156102ad57600080fd5b6102b561058c565b6040518082815260200191505060405180910390f35b34156102d657600080fd5b6102de610592565b604051808273ffffffffffffffffffffffffffffffffffffffff1673ffffffffffffffffffffffffffffffffffffffff16815260200191505060405180910390f35b341561032b57600080fd5b610357600480803573ffffffffffffffffffffffffffffffffffffffff169060200190919050506105b7565b6040518082815260200191505060405180910390f35b341561037857600080fd5b6103806105cf565b604051808215151515815260200191505060405180910390f35b34156103a557600080fd5b6103ad6105e2565b6040518082815260200191505060405180910390f35b34156103ce57600080fd5b6103d66105e8565b6040518082815260200191505060405180910390f35b34156103f757600080fd5b6103ff6105ee565b6040518082815260200191505060405180910390f35b341561042057600080fd5b6104286105f4565b604051808215151515815260200191505060405180910390f35b341561044d57600080fd5b610455610607565b604051808273ffffffffffffffffffffffffffffffffffffffff1673ffffffffffffffffffffffffffffffffffffffff16815260200191505060405180910390f35b34156104a257600080fd5b6104aa61062d565b005b6003544210151561058a5760015460025410151561056e576001600560156101000a81548160ff0219169083151502179055507fec3f991caf7857d61663fd1bba1739e04abd4781238508cde554bb849d790c856000809054906101000a900473ffffffffffffffffffffffffffffffffffffffff16600254604051808373ffffffffffffffffffffffffffffffffffffffff1673ffffffffffffffffffffffffffffffffffffffff1681526020018281526020019250505060405180910390a15b6001600560146101000a81548160ff0219169083151502179055505b565b60035481565b6000809054906101000a900473ffffffffffffffffffffffffffffffffffffffff1681565b60066020528060005260406000206000915090505481565b600560149054906101000a900460ff1681565b60015481565b60025481565b60045481565b600560159054906101000a900460ff1681565b600560009054906101000a900473ffffffffffffffffffffffffffffffffffffffff1681565b6000600354421015156108f457600560149054906101000a900460ff16151561065557600080fd5b600560159054906101000a900460ff1615156107a657600660003373ffffffffffffffffffffffffffffffffffffffff1673ffffffffffffffffffffffffffffffffffffffff1681526020019081526020016000205490503373ffffffffffffffffffffffffffffffffffffffff166108fc829081150290604051600060405180830381858888f19350505050156107a5576000600660003373ffffffffffffffffffffffffffffffffffffffff1673ffffffffffffffffffffffffffffffffffffffff168152602001908152602001600020819055507fe842aea7a5f1b01049d752008c53c52890b1a6daf660cf39e8eec506112bbdf633826000604051808473ffffffffffffffffffffffffffffffffffffffff1673ffffffffffffffffffffffffffffffffffffffff16815260200183815260200182151515158152602001935050505060405180910390a15b5b600560159054906101000a900460ff16801561080e57503373ffffffffffffffffffffffffffffffffffffffff166000809054906101000a900473ffffffffffffffffffffffffffffffffffffffff1673ffffffffffffffffffffffffffffffffffffffff16145b156108f3573373ffffffffffffffffffffffffffffffffffffffff166108fc6002549081150290604051600060405180830381858888f19350505050156108d65760006002819055507fe842aea7a5f1b01049d752008c53c52890b1a6daf660cf39e8eec506112bbdf6336002546000604051808473ffffffffffffffffffffffffffffffffffffffff1673ffffffffffffffffffffffffffffffffffffffff16815260200183815260200182151515158152602001935050505060405180910390a16108f2565b6000600560156101000a81548160ff0219169083151502179055505b5b5b505600a165627a7a7230582039b1fbef5fa60c1847debe35216ae6e12b59787f5613b2a975d92ccf7810346a0029",
  "source": "pragma solidity ^0.4.16;\r\n\r\ninterface token {\r\n    function transfer(address to, uint256 amount) public;\r\n}\r\n\r\ncontract CrowdSale {\r\n    address public beneficiary;\r\n    uint256 public fundingGoal;\r\n    uint256 public amountRaised;\r\n    uint256 public deadline;\r\n    uint256 public tokenPrice;\r\n\r\n    token public rewardToken;\r\n\r\n    bool public crowdSaleClosed;\r\n    bool public fundingGoalReached;\r\n\r\n    mapping(address => uint256) public balanceOf;\r\n\r\n    event GoalReached(address beneficiary, uint256 amountRaised);\r\n    event FundTransfer(address to, uint256 amount, bool isContribution);\r\n\r\n    function CrowdSale (\r\n        uint256 goalAmountInEther,\r\n        uint256 crowdSaleDurationInMinutes,\r\n        uint256 priceOfEachRewardToken,\r\n        address rewardTokenAddress\r\n    ) public {\r\n        beneficiary = msg.sender;\r\n        fundingGoal = goalAmountInEther;\r\n        amountRaised = 0;\r\n        deadline = now + crowdSaleDurationInMinutes * 1 minutes;\r\n        tokenPrice = priceOfEachRewardToken * 1 ether;\r\n        rewardToken = token(rewardTokenAddress);\r\n        crowdSaleClosed = false;\r\n        fundingGoalReached = false;\r\n\r\n    }\r\n\r\n    function () public payable {\r\n        require(!crowdSaleClosed);\r\n        uint256 amount = msg.value;\r\n        balanceOf[msg.sender] += amount;\r\n        amountRaised += amount;\r\n\r\n        rewardToken.transfer(msg.sender, amount / tokenPrice);\r\n        FundTransfer(msg.sender, amount, true);\r\n    }\r\n\r\n    modifier afterDeadline() {\r\n        if (now >= deadline) {\r\n            _;\r\n        }\r\n    \r\n    }\r\n\r\n    function checkGoalReached() public afterDeadline {\r\n        if (amountRaised >= fundingGoal) {\r\n            fundingGoalReached = true;\r\n            GoalReached(beneficiary, amountRaised);\r\n        }\r\n\r\n        crowdSaleClosed = true;\r\n    }\r\n\r\n    function safeTransfer() public afterDeadline {\r\n        require(crowdSaleClosed);\r\n\r\n        if (!fundingGoalReached) {\r\n            uint256 amount = balanceOf[msg.sender];\r\n            if (msg.sender.send(amount)) {\r\n                balanceOf[msg.sender] = 0;\r\n                FundTransfer(msg.sender, amount, false);\r\n            }\r\n            \r\n        } \r\n\r\n        if (fundingGoalReached && beneficiary == msg.sender) {\r\n            if (msg.sender.send(amountRaised)) {\r\n                amountRaised = 0;\r\n                FundTransfer(msg.sender, amountRaised, false);\r\n            } else {\r\n                fundingGoalReached = false;\r\n            }\r\n        }\r\n    }\r\n\r\n} ",
  "sourcePath": "C:\\workspace\\github.com\\rajeshsubhankar\\Demo-Crowdsale-ERC20Token\\contracts\\CrowdSale.sol",
  "compiler": {
    "name": "solc",
    "version": "0.4.18+commit.9cf6e910.Emscripten.clang"
  },
  "schemaVersion": "1.0.1",
  "updatedAt": "2017-12-06T15:53:23.162Z"
}