{
  "contractName": "Owned",
  "abi": [
    {
      "constant": true,
      "inputs": [],
      "name": "owner",
      "outputs": [
        {
          "name": "",
          "type": "address"
        }
      ],
      "payable": false,
      "stateMutability": "view",
      "type": "function"
    },
    {
      "constant": false,
      "inputs": [
        {
          "name": "newOwner",
          "type": "address"
        }
      ],
      "name": "changeOwner",
      "outputs": [],
      "payable": false,
      "stateMutability": "nonpayable",
      "type": "function"
    },
    {
      "inputs": [],
      "payable": false,
      "stateMutability": "nonpayable",
      "type": "constructor"
    }
  ],
  "bytecode": "0x6060604052341561000f57600080fd5b336000806101000a81548173ffffffffffffffffffffffffffffffffffffffff021916908373ffffffffffffffffffffffffffffffffffffffff1602179055506101ce8061005e6000396000f30060606040526004361061004c576000357c0100000000000000000000000000000000000000000000000000000000900463ffffffff1680638da5cb5b14610051578063a6f9dae1146100a6575b600080fd5b341561005c57600080fd5b6100646100df565b604051808273ffffffffffffffffffffffffffffffffffffffff1673ffffffffffffffffffffffffffffffffffffffff16815260200191505060405180910390f35b34156100b157600080fd5b6100dd600480803573ffffffffffffffffffffffffffffffffffffffff16906020019091905050610104565b005b6000809054906101000a900473ffffffffffffffffffffffffffffffffffffffff1681565b6000809054906101000a900473ffffffffffffffffffffffffffffffffffffffff1673ffffffffffffffffffffffffffffffffffffffff163373ffffffffffffffffffffffffffffffffffffffff1614151561015f57600080fd5b806000806101000a81548173ffffffffffffffffffffffffffffffffffffffff021916908373ffffffffffffffffffffffffffffffffffffffff160217905550505600a165627a7a72305820f43f0ce4c7316e8b194af76029323355e5a1356d3bd95fe9ef984995e84356c10029",
  "source": "pragma solidity ^0.4.16;\r\n\r\ncontract Owned {\r\n    address public owner;\r\n\r\n    function Owned() public {\r\n        owner = msg.sender;\r\n    }\r\n\r\n    modifier onlyOwner {\r\n        require(msg.sender == owner);\r\n        _;\r\n    }\r\n\r\n    function changeOwner(address newOwner) onlyOwner public {\r\n        owner = newOwner;\r\n    }\r\n}\r\n\r\ncontract OreoCoin is Owned {\r\n    string public name;\r\n    string public symbol;\r\n    uint8 public decimal = 18;\r\n    uint256 public totalSupply;\r\n    bytes32 public currentChallenge;\r\n    uint public timeOfLastProof;\r\n    uint public difficulty;\r\n\r\n    mapping( address => uint256) public balanceOf;\r\n    mapping(address => mapping(address => uint256)) public allowance;\r\n    mapping(address => bool) public frozenAccounts;\r\n\r\n    event Transfer(address from, address to, uint256 amount);\r\n    event Burnt(address from, uint256 amount);\r\n    event Frozen(address target, bool isFrozen);\r\n\r\n    function OreoCoin (\r\n        string tokenName,\r\n        string tokenSymbol,\r\n        uint256 initialSupply\r\n    ) public {\r\n        totalSupply = initialSupply * 10 ** uint256(decimal);\r\n        name = tokenName;\r\n        symbol = tokenSymbol;\r\n        timeOfLastProof = now;\r\n\r\n        owner = msg.sender;\r\n        balanceOf[owner] = totalSupply;\r\n\r\n    }\r\n\r\n    function _transfer(address from, address to, uint256 amount) internal {\r\n        require(from != 0x0);\r\n        require(to != 0x0);\r\n        require(!frozenAccounts[from]);\r\n        require(!frozenAccounts[to]);\r\n        require(balanceOf[from] >= amount);\r\n        require(balanceOf[to] + amount >= amount);\r\n\r\n        uint previousValue = balanceOf[from] + balanceOf[to];\r\n\r\n        balanceOf[from] -= amount;\r\n        balanceOf[to] += amount;\r\n\r\n        Transfer(from, to, amount); //Event\r\n\r\n        assert(balanceOf[from] + balanceOf[to] == previousValue);\r\n    }\r\n\r\n    function transfer(address to, uint256 amount) public {\r\n        _transfer(msg.sender, to, amount);\r\n    }\r\n\r\n    function transfer(address from, address to, uint256 amount) public returns(bool status) {\r\n        require(allowance[msg.sender][from] >= amount);\r\n        allowance[msg.sender][from] -= amount;\r\n\r\n        _transfer(from, to, amount);\r\n        return true;\r\n    }\r\n\r\n    function setAllowance(address spender, uint256 amount) public returns(bool status) {\r\n        allowance[spender][msg.sender] = amount;\r\n        return true;\r\n    }\r\n\r\n    function burn(uint256 amount) public returns(bool status) {\r\n        require(balanceOf[msg.sender] >= amount);\r\n        \r\n        balanceOf[msg.sender] -= amount;\r\n        totalSupply -= amount;\r\n        \r\n        Burnt(msg.sender, amount);\r\n        \r\n        return true;\r\n    }\r\n\r\n    function burnFrom(address from, uint256 amount) public returns(bool status) {\r\n        require(allowance[msg.sender][from] >= amount);\r\n        require(balanceOf[from] >= amount);\r\n\r\n        balanceOf[from] -= amount;\r\n        totalSupply -= amount;\r\n        allowance[msg.sender][from] -= amount;\r\n\r\n        Burnt(from, amount);\r\n\r\n        return true;\r\n    }\r\n\r\n    function freezeAccount(address target, bool isFreeze) onlyOwner public {\r\n        frozenAccounts[target] = isFreeze;\r\n        Frozen(target, isFreeze);\r\n    }\r\n\r\n    function getBalance(address target) public constant returns(uint256 amount) {\r\n        amount = balanceOf[target];\r\n    } \r\n\r\n    //Needs furthur Research and Modifications\r\n    function blockReward(uint nonce) public {\r\n        bytes8 n = bytes8(sha256(nonce, currentChallenge));\r\n        require(n >= bytes8(difficulty));\r\n\r\n        uint timeSinceLastProof = now - timeOfLastProof;\r\n        require(timeSinceLastProof >= 5 seconds);\r\n\r\n        balanceOf[block.coinbase] += timeSinceLastProof / 60 seconds;\r\n        totalSupply += timeSinceLastProof / 60 seconds;\r\n\r\n        difficulty = difficulty * (10 minutes / timeSinceLastProof) + 1;\r\n        timeOfLastProof = now;\r\n\r\n        currentChallenge = sha256(currentChallenge, nonce, difficulty, block.blockhash(block.number - 1));\r\n    }\r\n\r\n}",
  "sourcePath": "C:\\workspace\\github.com\\rajeshsubhankar\\Demo-Crowdsale-ERC20Token\\contracts\\OreoCoin.sol",
  "compiler": {
    "name": "solc",
    "version": "0.4.18+commit.9cf6e910.Emscripten.clang"
  },
  "schemaVersion": "1.0.1",
  "updatedAt": "2017-12-06T15:51:49.272Z"
}