{
  "contractName": "PTS",
  "abi": [
    {
      "constant": true,
      "inputs": [],
      "name": "name",
      "outputs": [
        {
          "name": "",
          "type": "string"
        }
      ],
      "payable": false,
      "stateMutability": "view",
      "type": "function"
    },
    {
      "constant": true,
      "inputs": [],
      "name": "totalSupply",
      "outputs": [
        {
          "name": "",
          "type": "uint256"
        }
      ],
      "payable": false,
      "stateMutability": "view",
      "type": "function"
    },
    {
      "constant": true,
      "inputs": [
        {
          "name": "spender",
          "type": "address"
        },
        {
          "name": "amount",
          "type": "uint256"
        }
      ],
      "name": "difficulty",
      "outputs": [
        {
          "name": "",
          "type": "uint256"
        }
      ],
      "payable": false,
      "stateMutability": "view",
      "type": "function"
    },
    {
      "constant": false,
      "inputs": [
        {
          "name": "nonce",
          "type": "uint256"
        }
      ],
      "name": "blockReward",
      "outputs": [
        {
          "name": "status",
          "type": "bool"
        }
      ],
      "payable": false,
      "stateMutability": "nonpayable",
      "type": "function"
    },
    {
      "constant": false,
      "inputs": [
        {
          "name": "spender",
          "type": "address"
        },
        {
          "name": "amount",
          "type": "uint256"
        }
      ],
      "name": "setAllowance",
      "outputs": [
        {
          "name": "status",
          "type": "bool"
        }
      ],
      "payable": false,
      "stateMutability": "nonpayable",
      "type": "function"
    },
    {
      "constant": false,
      "inputs": [
        {
          "name": "amount",
          "type": "uint256"
        }
      ],
      "name": "burn",
      "outputs": [
        {
          "name": "status",
          "type": "bool"
        }
      ],
      "payable": false,
      "stateMutability": "nonpayable",
      "type": "function"
    },
    {
      "constant": true,
      "inputs": [
        {
          "name": "from",
          "type": "address"
        },
        {
          "name": "amount",
          "type": "uint256"
        }
      ],
      "name": "currentChallenge",
      "outputs": [
        {
          "name": "",
          "type": "bytes32"
        }
      ],
      "payable": false,
      "stateMutability": "view",
      "type": "function"
    },
    {
      "constant": true,
      "inputs": [
        {
          "name": "",
          "type": "address"
        }
      ],
      "name": "balanceOf",
      "outputs": [
        {
          "name": "",
          "type": "uint256"
        }
      ],
      "payable": false,
      "stateMutability": "view",
      "type": "function"
    },
    {
      "constant": true,
      "inputs": [],
      "name": "decimal",
      "outputs": [
        {
          "name": "",
          "type": "uint8"
        }
      ],
      "payable": false,
      "stateMutability": "view",
      "type": "function"
    },
    {
      "constant": false,
      "inputs": [
        {
          "name": "from",
          "type": "address"
        },
        {
          "name": "amount",
          "type": "uint256"
        }
      ],
      "name": "burnFrom",
      "outputs": [
        {
          "name": "status",
          "type": "bool"
        }
      ],
      "payable": false,
      "stateMutability": "nonpayable",
      "type": "function"
    },
    {
      "constant": true,
      "inputs": [
        {
          "name": "newOwner",
          "type": "address"
        }
      ],
      "name": "timeOfLastProof",
      "outputs": [
        {
          "name": "",
          "type": "uint256"
        }
      ],
      "payable": false,
      "stateMutability": "view",
      "type": "function"
    },
    {
      "constant": true,
      "inputs": [
        {
          "name": "",
          "type": "address"
        },
        {
          "name": "amount",
          "type": "uint256"
        }
      ],
      "name": "frozenAccounts",
      "outputs": [
        {
          "name": "",
          "type": "bool"
        }
      ],
      "payable": false,
      "stateMutability": "view",
      "type": "function"
    },
    {
      "constant": true,
      "inputs": [
        {
          "name": "from",
          "type": "address"
        },
        {
          "name": "to",
          "type": "address"
        },
        {
          "name": "amount",
          "type": "uint256"
        }
      ],
      "name": "owner",
      "outputs": [
        {
          "name": "",
          "type": "address"
        }
      ],
      "payable": false,
      "stateMutability": "view",
      "type": "function"
    },
    {
      "constant": true,
      "inputs": [
        {
          "name": "",
          "type": "address"
        },
        {
          "name": "",
          "type": "address"
        }
      ],
      "name": "symbol",
      "outputs": [
        {
          "name": "",
          "type": "string"
        }
      ],
      "payable": false,
      "stateMutability": "view",
      "type": "function"
    },
    {
      "constant": false,
      "inputs": [
        {
          "name": "newOwner",
          "type": "address"
        },
        {
          "name": "isFreeze",
          "type": "bool"
        }
      ],
      "name": "changeOwner",
      "outputs": [],
      "payable": false,
      "stateMutability": "nonpayable",
      "type": "function"
    },
    {
      "inputs": [
        {
          "name": "to",
          "type": "address"
        },
        {
          "name": "amount",
          "type": "uint256"
        },
        {
          "name": "initialSupply",
          "type": "uint256"
        }
      ],
      "payable": false,
      "stateMutability": "nonpayable",
      "type": "function",
      "constant": false,
      "name": "transfer",
      "outputs": [
        {
          "name": "amount",
          "type": "uint256"
        }
      ]
    },
    {
      "anonymous": false,
      "inputs": [
        {
          "indexed": false,
          "name": "from",
          "type": "address"
        },
        {
          "indexed": false,
          "name": "to",
          "type": "address"
        },
        {
          "indexed": false,
          "name": "amount",
          "type": "uint256"
        }
      ],
      "name": "transfer",
      "type": "function",
      "payable": false,
      "stateMutability": "nonpayable",
      "constant": false,
      "outputs": [
        {
          "name": "status",
          "type": "bool"
        }
      ]
    },
    {
      "anonymous": false,
      "inputs": [
        {
          "indexed": false,
          "name": "",
          "type": "address"
        },
        {
          "indexed": false,
          "name": "",
          "type": "address"
        },
        {
          "indexed": false,
          "name": "amount",
          "type": "uint256"
        }
      ],
      "name": "allowance",
      "type": "function",
      "constant": true,
      "outputs": [
        {
          "name": "",
          "type": "uint256"
        }
      ],
      "payable": false,
      "stateMutability": "view"
    },
    {
      "anonymous": false,
      "inputs": [
        {
          "indexed": false,
          "name": "target",
          "type": "address"
        },
        {
          "indexed": false,
          "name": "isFreeze",
          "type": "bool"
        }
      ],
      "name": "freezeAccount",
      "type": "function",
      "constant": false,
      "outputs": [],
      "payable": false,
      "stateMutability": "nonpayable"
    },
    {
      "anonymous": false,
      "inputs": [
        {
          "indexed": false,
          "name": "target",
          "type": "address"
        },
        {
          "indexed": false,
          "name": "isFrozen",
          "type": "bool"
        }
      ],
      "name": "getBalance",
      "type": "function",
      "constant": true,
      "outputs": [
        {
          "name": "amount",
          "type": "uint256"
        }
      ],
      "payable": false,
      "stateMutability": "view"
    },
    {
      "inputs": [
        {
          "name": "tokenName",
          "type": "string"
        },
        {
          "name": "tokenSymbol",
          "type": "string"
        },
        {
          "name": "initialSupply",
          "type": "uint256"
        }
      ],
      "payable": false,
      "stateMutability": "nonpayable",
      "type": "constructor"
    },
    {
      "anonymous": false,
      "inputs": [
        {
          "indexed": false,
          "name": "from",
          "type": "address"
        },
        {
          "indexed": false,
          "name": "to",
          "type": "address"
        },
        {
          "indexed": false,
          "name": "amount",
          "type": "uint256"
        }
      ],
      "name": "Transfer",
      "type": "event"
    },
    {
      "anonymous": false,
      "inputs": [
        {
          "indexed": false,
          "name": "from",
          "type": "address"
        },
        {
          "indexed": false,
          "name": "amount",
          "type": "uint256"
        }
      ],
      "name": "Burnt",
      "type": "event"
    },
    {
      "anonymous": false,
      "inputs": [
        {
          "indexed": false,
          "name": "target",
          "type": "address"
        },
        {
          "indexed": false,
          "name": "isFrozen",
          "type": "bool"
        }
      ],
      "name": "Frozen",
      "type": "event"
    }
  ],
  "bytecode": "0x60606040526012600360006101000a81548160ff021916908360ff16021790555034156200002c57600080fd5b604051620018793803806200187983398101604052808051820191906020018051820191906020018051906020019091905050336000806101000a81548173ffffffffffffffffffffffffffffffffffffffff021916908373ffffffffffffffffffffffffffffffffffffffff160217905550600360009054906101000a900460ff1660ff16600a0a81026004819055508260019080519060200190620000d5929190620001a6565b508160029080519060200190620000ee929190620001a6565b5042600681905550336000806101000a81548173ffffffffffffffffffffffffffffffffffffffff021916908373ffffffffffffffffffffffffffffffffffffffff160217905550600454600860008060009054906101000a900473ffffffffffffffffffffffffffffffffffffffff1673ffffffffffffffffffffffffffffffffffffffff1673ffffffffffffffffffffffffffffffffffffffff1681526020019081526020016000208190555050505062000255565b828054600181600116156101000203166002900490600052602060002090601f016020900481019282601f10620001e957805160ff19168380011785556200021a565b828001600101855582156200021a579182015b8281111562000219578251825591602001919060010190620001fc565b5b5090506200022991906200022d565b5090565b6200025291905b808211156200024e57600081600090555060010162000234565b5090565b90565b61161480620002656000396000f300606060405260043610610112576000357c0100000000000000000000000000000000000000000000000000000000900463ffffffff16806306fdde031461011757806318160ddd146101a557806319cae462146101ce57806325d1818b146101f7578063310ec4a71461021a57806342966c681461027457806351bdd585146102af57806370a08231146102e057806376809ce31461032d57806379cc67901461035c57806381c8149d146103b6578063860838a5146103df5780638da5cb5b1461043057806395d89b4114610485578063a6f9dae114610513578063a9059cbb1461054c578063beabacc81461058e578063dd62ed3e14610607578063e724529c14610673578063f8b2cb4f146106b7575b600080fd5b341561012257600080fd5b61012a610704565b6040518080602001828103825283818151815260200191508051906020019080838360005b8381101561016a57808201518184015260208101905061014f565b50505050905090810190601f1680156101975780820380516001836020036101000a031916815260200191505b509250505060405180910390f35b34156101b057600080fd5b6101b86107a2565b6040518082815260200191505060405180910390f35b34156101d957600080fd5b6101e16107a8565b6040518082815260200191505060405180910390f35b341561020257600080fd5b61021860048080359060200190919050506107ae565b005b341561022557600080fd5b61025a600480803573ffffffffffffffffffffffffffffffffffffffff16906020019091908035906020019091905050610992565b604051808215151515815260200191505060405180910390f35b341561027f57600080fd5b6102956004808035906020019091905050610a1f565b604051808215151515815260200191505060405180910390f35b34156102ba57600080fd5b6102c2610b40565b60405180826000191660001916815260200191505060405180910390f35b34156102eb57600080fd5b610317600480803573ffffffffffffffffffffffffffffffffffffffff16906020019091905050610b46565b6040518082815260200191505060405180910390f35b341561033857600080fd5b610340610b5e565b604051808260ff1660ff16815260200191505060405180910390f35b341561036757600080fd5b61039c600480803573ffffffffffffffffffffffffffffffffffffffff16906020019091908035906020019091905050610b71565b604051808215151515815260200191505060405180910390f35b34156103c157600080fd5b6103c9610da8565b6040518082815260200191505060405180910390f35b34156103ea57600080fd5b610416600480803573ffffffffffffffffffffffffffffffffffffffff16906020019091905050610dae565b604051808215151515815260200191505060405180910390f35b341561043b57600080fd5b610443610dce565b604051808273ffffffffffffffffffffffffffffffffffffffff1673ffffffffffffffffffffffffffffffffffffffff16815260200191505060405180910390f35b341561049057600080fd5b610498610df3565b6040518080602001828103825283818151815260200191508051906020019080838360005b838110156104d85780820151818401526020810190506104bd565b50505050905090810190601f1680156105055780820380516001836020036101000a031916815260200191505b509250505060405180910390f35b341561051e57600080fd5b61054a600480803573ffffffffffffffffffffffffffffffffffffffff16906020019091905050610e91565b005b341561055757600080fd5b61058c600480803573ffffffffffffffffffffffffffffffffffffffff16906020019091908035906020019091905050610f2f565b005b341561059957600080fd5b6105ed600480803573ffffffffffffffffffffffffffffffffffffffff1690602001909190803573ffffffffffffffffffffffffffffffffffffffff16906020019091908035906020019091905050610f3e565b604051808215151515815260200191505060405180910390f35b341561061257600080fd5b61065d600480803573ffffffffffffffffffffffffffffffffffffffff1690602001909190803573ffffffffffffffffffffffffffffffffffffffff1690602001909190505061106b565b6040518082815260200191505060405180910390f35b341561067e57600080fd5b6106b5600480803573ffffffffffffffffffffffffffffffffffffffff169060200190919080351515906020019091905050611090565b005b34156106c257600080fd5b6106ee600480803573ffffffffffffffffffffffffffffffffffffffff169060200190919050506111b5565b6040518082815260200191505060405180910390f35b60018054600181600116156101000203166002900480601f01602080910402602001604051908101604052809291908181526020018280546001816001161561010002031660029004801561079a5780601f1061076f5761010080835404028352916020019161079a565b820191906000526020600020905b81548152906001019060200180831161077d57829003601f168201915b505050505081565b60045481565b60075481565b6000806002836005546000604051602001526040518083815260200182600019166000191681526020019250505060206040518083038160008661646e5a03f115156107f957600080fd5b505060405180519050915060075478010000000000000000000000000000000000000000000000000277ffffffffffffffffffffffffffffffffffffffffffffffff19168277ffffffffffffffffffffffffffffffffffffffffffffffff19161015151561086657600080fd5b600654420390506005811015151561087d57600080fd5b603c8181151561088957fe5b04600860004173ffffffffffffffffffffffffffffffffffffffff1673ffffffffffffffffffffffffffffffffffffffff16815260200190815260200160002060008282540192505081905550603c818115156108e257fe5b0460046000828254019250508190555060018161025881151561090157fe5b046007540201600781905550426006819055506002600554846007546001430340600060405160200152604051808560001916600019168152602001848152602001838152602001826000191660001916815260200194505050505060206040518083038160008661646e5a03f1151561097a57600080fd5b50506040518051905060058160001916905550505050565b600081600960008573ffffffffffffffffffffffffffffffffffffffff1673ffffffffffffffffffffffffffffffffffffffff16815260200190815260200160002060003373ffffffffffffffffffffffffffffffffffffffff1673ffffffffffffffffffffffffffffffffffffffff168152602001908152602001600020819055506001905092915050565b600081600860003373ffffffffffffffffffffffffffffffffffffffff1673ffffffffffffffffffffffffffffffffffffffff1681526020019081526020016000205410151515610a6f57600080fd5b81600860003373ffffffffffffffffffffffffffffffffffffffff1673ffffffffffffffffffffffffffffffffffffffff16815260200190815260200160002060008282540392505081905550816004600082825403925050819055507f919f7e2092ffcc9d09f599be18d8152860b0c054df788a33bc549cdd9d0f15b13383604051808373ffffffffffffffffffffffffffffffffffffffff1673ffffffffffffffffffffffffffffffffffffffff1681526020018281526020019250505060405180910390a160019050919050565b60055481565b60086020528060005260406000206000915090505481565b600360009054906101000a900460ff1681565b600081600960003373ffffffffffffffffffffffffffffffffffffffff1673ffffffffffffffffffffffffffffffffffffffff16815260200190815260200160002060008573ffffffffffffffffffffffffffffffffffffffff1673ffffffffffffffffffffffffffffffffffffffff1681526020019081526020016000205410151515610bfe57600080fd5b81600860008573ffffffffffffffffffffffffffffffffffffffff1673ffffffffffffffffffffffffffffffffffffffff1681526020019081526020016000205410151515610c4c57600080fd5b81600860008573ffffffffffffffffffffffffffffffffffffffff1673ffffffffffffffffffffffffffffffffffffffff168152602001908152602001600020600082825403925050819055508160046000828254039250508190555081600960003373ffffffffffffffffffffffffffffffffffffffff1673ffffffffffffffffffffffffffffffffffffffff16815260200190815260200160002060008573ffffffffffffffffffffffffffffffffffffffff1673ffffffffffffffffffffffffffffffffffffffff168152602001908152602001600020600082825403925050819055507f919f7e2092ffcc9d09f599be18d8152860b0c054df788a33bc549cdd9d0f15b18383604051808373ffffffffffffffffffffffffffffffffffffffff1673ffffffffffffffffffffffffffffffffffffffff1681526020018281526020019250505060405180910390a16001905092915050565b60065481565b600a6020528060005260406000206000915054906101000a900460ff1681565b6000809054906101000a900473ffffffffffffffffffffffffffffffffffffffff1681565b60028054600181600116156101000203166002900480601f016020809104026020016040519081016040528092919081815260200182805460018160011615610100020316600290048015610e895780601f10610e5e57610100808354040283529160200191610e89565b820191906000526020600020905b815481529060010190602001808311610e6c57829003601f168201915b505050505081565b6000809054906101000a900473ffffffffffffffffffffffffffffffffffffffff1673ffffffffffffffffffffffffffffffffffffffff163373ffffffffffffffffffffffffffffffffffffffff16141515610eec57600080fd5b806000806101000a81548173ffffffffffffffffffffffffffffffffffffffff021916908373ffffffffffffffffffffffffffffffffffffffff16021790555050565b610f3a3383836111fe565b5050565b600081600960003373ffffffffffffffffffffffffffffffffffffffff1673ffffffffffffffffffffffffffffffffffffffff16815260200190815260200160002060008673ffffffffffffffffffffffffffffffffffffffff1673ffffffffffffffffffffffffffffffffffffffff1681526020019081526020016000205410151515610fcb57600080fd5b81600960003373ffffffffffffffffffffffffffffffffffffffff1673ffffffffffffffffffffffffffffffffffffffff16815260200190815260200160002060008673ffffffffffffffffffffffffffffffffffffffff1673ffffffffffffffffffffffffffffffffffffffff168152602001908152602001600020600082825403925050819055506110608484846111fe565b600190509392505050565b6009602052816000526040600020602052806000526040600020600091509150505481565b6000809054906101000a900473ffffffffffffffffffffffffffffffffffffffff1673ffffffffffffffffffffffffffffffffffffffff163373ffffffffffffffffffffffffffffffffffffffff161415156110eb57600080fd5b80600a60008473ffffffffffffffffffffffffffffffffffffffff1673ffffffffffffffffffffffffffffffffffffffff16815260200190815260200160002060006101000a81548160ff0219169083151502179055507f713eb400302cebac61f82eb8de5051d38458517ffac43ae45f4a9fd5d09ee6988282604051808373ffffffffffffffffffffffffffffffffffffffff1673ffffffffffffffffffffffffffffffffffffffff168152602001821515151581526020019250505060405180910390a15050565b6000600860008373ffffffffffffffffffffffffffffffffffffffff1673ffffffffffffffffffffffffffffffffffffffff168152602001908152602001600020549050919050565b6000808473ffffffffffffffffffffffffffffffffffffffff161415151561122557600080fd5b60008373ffffffffffffffffffffffffffffffffffffffff161415151561124b57600080fd5b600a60008573ffffffffffffffffffffffffffffffffffffffff1673ffffffffffffffffffffffffffffffffffffffff16815260200190815260200160002060009054906101000a900460ff161515156112a457600080fd5b600a60008473ffffffffffffffffffffffffffffffffffffffff1673ffffffffffffffffffffffffffffffffffffffff16815260200190815260200160002060009054906101000a900460ff161515156112fd57600080fd5b81600860008673ffffffffffffffffffffffffffffffffffffffff1673ffffffffffffffffffffffffffffffffffffffff168152602001908152602001600020541015151561134b57600080fd5b8182600860008673ffffffffffffffffffffffffffffffffffffffff1673ffffffffffffffffffffffffffffffffffffffff16815260200190815260200160002054011015151561139b57600080fd5b600860008473ffffffffffffffffffffffffffffffffffffffff1673ffffffffffffffffffffffffffffffffffffffff16815260200190815260200160002054600860008673ffffffffffffffffffffffffffffffffffffffff1673ffffffffffffffffffffffffffffffffffffffff1681526020019081526020016000205401905081600860008673ffffffffffffffffffffffffffffffffffffffff1673ffffffffffffffffffffffffffffffffffffffff1681526020019081526020016000206000828254039250508190555081600860008573ffffffffffffffffffffffffffffffffffffffff1673ffffffffffffffffffffffffffffffffffffffff168152602001908152602001600020600082825401925050819055507fddf252ad1be2c89b69c2b068fc378daa952ba7f163c4a11628f55a4df523b3ef848484604051808473ffffffffffffffffffffffffffffffffffffffff1673ffffffffffffffffffffffffffffffffffffffff1681526020018373ffffffffffffffffffffffffffffffffffffffff1673ffffffffffffffffffffffffffffffffffffffff168152602001828152602001935050505060405180910390a180600860008573ffffffffffffffffffffffffffffffffffffffff1673ffffffffffffffffffffffffffffffffffffffff16815260200190815260200160002054600860008773ffffffffffffffffffffffffffffffffffffffff1673ffffffffffffffffffffffffffffffffffffffff16815260200190815260200160002054011415156115e257fe5b505050505600a165627a7a7230582075813bcacff5b78e791cd315ac38a502876410fe737dfe8027f60f14b2d8541e0029",
  "source": "pragma solidity ^0.4.16;\r\n\r\ncontract Owned {\r\n    address public owner;\r\n\r\n    function Owned() public {\r\n        owner = msg.sender;\r\n    }\r\n\r\n    modifier onlyOwner {\r\n        require(msg.sender == owner);\r\n        _;\r\n    }\r\n\r\n    function changeOwner(address newOwner) onlyOwner public {\r\n        owner = newOwner;\r\n    }\r\n}\r\n\r\ncontract PTS is Owned {\r\n    string public name;\r\n    string public symbol;\r\n    uint8 public decimal = 18;\r\n    uint256 public totalSupply;\r\n    bytes32 public currentChallenge;\r\n    uint public timeOfLastProof;\r\n    uint public difficulty;\r\n\r\n    mapping( address => uint256) public balanceOf;\r\n    mapping(address => mapping(address => uint256)) public allowance;\r\n    mapping(address => bool) public frozenAccounts;\r\n\r\n    event Transfer(address from, address to, uint256 amount);\r\n    event Burnt(address from, uint256 amount);\r\n    event Frozen(address target, bool isFrozen);\r\n\r\n    function PTS(\r\n        string tokenName,\r\n        string tokenSymbol,\r\n        uint256 initialSupply\r\n    ) public {\r\n        totalSupply = initialSupply * 10 ** uint256(decimal);\r\n        name = tokenName;\r\n        symbol = tokenSymbol;\r\n        timeOfLastProof = now;\r\n\r\n        owner = msg.sender;\r\n        balanceOf[owner] = totalSupply;\r\n\r\n    }\r\n\r\n    function _transfer(address from, address to, uint256 amount) internal {\r\n        require(from != 0x0);\r\n        require(to != 0x0);\r\n        require(!frozenAccounts[from]);\r\n        require(!frozenAccounts[to]);\r\n        require(balanceOf[from] >= amount);\r\n        require(balanceOf[to] + amount >= amount);\r\n\r\n        uint previousValue = balanceOf[from] + balanceOf[to];\r\n\r\n        balanceOf[from] -= amount;\r\n        balanceOf[to] += amount;\r\n\r\n        Transfer(from, to, amount); //Event\r\n\r\n        assert(balanceOf[from] + balanceOf[to] == previousValue);\r\n    }\r\n\r\n    function transfer(address to, uint256 amount) public {\r\n        _transfer(msg.sender, to, amount);\r\n    }\r\n\r\n    function transfer(address from, address to, uint256 amount) public returns(bool status) {\r\n        require(allowance[msg.sender][from] >= amount);\r\n        allowance[msg.sender][from] -= amount;\r\n\r\n        _transfer(from, to, amount);\r\n        return true;\r\n    }\r\n\r\n    function setAllowance(address spender, uint256 amount) public returns(bool status) {\r\n        allowance[spender][msg.sender] = amount;\r\n        return true;\r\n    }\r\n\r\n    function burn(uint256 amount) public returns(bool status) {\r\n        require(balanceOf[msg.sender] >= amount);\r\n        \r\n        balanceOf[msg.sender] -= amount;\r\n        totalSupply -= amount;\r\n        \r\n        Burnt(msg.sender, amount);\r\n        \r\n        return true;\r\n    }\r\n\r\n    function burnFrom(address from, uint256 amount) public returns(bool status) {\r\n        require(allowance[msg.sender][from] >= amount);\r\n        require(balanceOf[from] >= amount);\r\n\r\n        balanceOf[from] -= amount;\r\n        totalSupply -= amount;\r\n        allowance[msg.sender][from] -= amount;\r\n\r\n        Burnt(from, amount);\r\n\r\n        return true;\r\n    }\r\n\r\n    function freezeAccount(address target, bool isFreeze) onlyOwner public {\r\n        frozenAccounts[target] = isFreeze;\r\n        Frozen(target, isFreeze);\r\n    }\r\n\r\n    function getBalance(address target) public constant returns(uint256 amount) {\r\n        amount = balanceOf[target];\r\n    } \r\n\r\n    //Needs furthur Research and Modifications\r\n    function blockReward(uint nonce) public {\r\n        bytes8 n = bytes8(sha256(nonce, currentChallenge));\r\n        require(n >= bytes8(difficulty));\r\n\r\n        uint timeSinceLastProof = now - timeOfLastProof;\r\n        require(timeSinceLastProof >= 5 seconds);\r\n\r\n        balanceOf[block.coinbase] += timeSinceLastProof / 60 seconds;\r\n        totalSupply += timeSinceLastProof / 60 seconds;\r\n\r\n        difficulty = difficulty * (10 minutes / timeSinceLastProof) + 1;\r\n        timeOfLastProof = now;\r\n\r\n        currentChallenge = sha256(currentChallenge, nonce, difficulty, block.blockhash(block.number - 1));\r\n    }\r\n\r\n}",
  "sourcePath": "C:\\workspace\\blockchain\\ethereum\\DApp\\PTS_crowdsale\\contracts\\PTS.sol",
  "compiler": {
    "name": "solc",
    "version": "0.4.18+commit.9cf6e910.Emscripten.clang"
  },
  "schemaVersion": "1.0.1",
  "updatedAt": "2017-12-06T14:34:39.393Z"
}